{
  "contractName": "Faucet",
  "abi": [
    {
      "inputs": [],
      "name": "counter",
      "outputs": [
        {
          "internalType": "uint32",
          "name": "",
          "type": "uint32"
        }
      ],
      "stateMutability": "view",
      "type": "function",
      "constant": true
    },
    {
      "inputs": [],
      "name": "funds",
      "outputs": [
        {
          "internalType": "uint256",
          "name": "",
          "type": "uint256"
        }
      ],
      "stateMutability": "view",
      "type": "function",
      "constant": true
    },
    {
      "stateMutability": "payable",
      "type": "receive",
      "payable": true
    }
  ],
  "bytecode": "0x6080604052600a6000556000600160006101000a81548163ffffffff021916908363ffffffff16021790555034801561003757600080fd5b5061014f806100476000396000f3fe60806040526004361061002d5760003560e01c806361bc221a14610039578063c89f2ce41461006457610034565b3661003457005b600080fd5b34801561004557600080fd5b5061004e61008f565b60405161005b91906100e4565b60405180910390f35b34801561007057600080fd5b506100796100a5565b60405161008691906100c9565b60405180910390f35b600160009054906101000a900463ffffffff1681565b60005481565b6100b4816100ff565b82525050565b6100c381610109565b82525050565b60006020820190506100de60008301846100ab565b92915050565b60006020820190506100f960008301846100ba565b92915050565b6000819050919050565b600063ffffffff8216905091905056fea2646970667358221220dc38e8a925a2a2e54509eb2978d307288b339fc34a72dbea87174a3bed53c93464736f6c63430008010033",
  "immutableReferences": {},
  "source": "// SPDX-License-Identifier: MIT\npragma solidity >=0.5.1 <0.9.0;\n\ncontract Faucet {\n  //storage variables\n  uint256 public funds = 10;\n  uint32 public counter = 0;\n\n  //receive function to realiment the faucet\n  receive() external payable {}\n}\n",
  "sourcePath": "/Users/vladimirioanrotariu/Desktop/blockchainProjects/faucet/contracts/FaucetContract.sol",
  "compiler": {
    "name": "solc",
    "version": "0.8.1+commit.df193b15.Emscripten.clang"
  },
  "schemaVersion": "3.4.15",
  "updatedAt": "2023-09-08T17:16:24.481Z",
  "networkType": "ethereum",
  "devdoc": {
    "kind": "dev",
    "methods": {},
    "version": 1
  },
  "userdoc": {
    "kind": "user",
    "methods": {},
    "version": 1
  }
}