{
  "contractName": "Faucet",
  "abi": [
    {
      "constant": true,
      "inputs": [],
      "name": "counter",
      "outputs": [
        {
          "name": "",
          "type": "uint32"
        }
      ],
      "payable": false,
      "stateMutability": "view",
      "type": "function"
    },
    {
      "constant": true,
      "inputs": [],
      "name": "funds",
      "outputs": [
        {
          "name": "",
          "type": "uint256"
        }
      ],
      "payable": false,
      "stateMutability": "view",
      "type": "function"
    }
  ],
  "bytecode": "0x6080604052600a6000556000600160006101000a81548163ffffffff021916908363ffffffff16021790555034801561003757600080fd5b5060ec806100466000396000f3fe6080604052600436106043576000357c01000000000000000000000000000000000000000000000000000000009004806361bc221a146048578063c89f2ce414607c575b600080fd5b348015605357600080fd5b50605a60a4565b604051808263ffffffff1663ffffffff16815260200191505060405180910390f35b348015608757600080fd5b50608e60ba565b6040518082815260200191505060405180910390f35b600160009054906101000a900463ffffffff1681565b6000548156fea165627a7a723058206e7cb2011b37870edea8760a63f83621b12be47c8ca1f14c426c80a2f88669590029",
  "source": "// SPDX-License-Identifier: MIT\npragma solidity >=0.5.1 <0.9.0;\n\ncontract Faucet {\n  //storage variables\n  uint256 public funds = 10;\n  uint32 public counter = 0;\n}\n",
  "sourcePath": "/Users/vladimirioanrotariu/Desktop/blockchainProjects/faucet/contracts/FaucetContract.sol",
  "compiler": {
    "name": "solc",
    "version": "0.5.1+commit.c8a2cb62.Emscripten.clang"
  },
  "schemaVersion": "3.4.15",
  "updatedAt": "2023-09-08T09:22:21.070Z",
  "devdoc": {
    "methods": {}
  },
  "userdoc": {
    "methods": {}
  }
}